{
  "contractName": "ForensicContract",
  "abi": [
    {
      "constant": true,
      "inputs": [
        {
          "internalType": "uint256",
          "name": "",
          "type": "uint256"
        }
      ],
      "name": "crime",
      "outputs": [
        {
          "internalType": "string",
          "name": "crime_id",
          "type": "string"
        },
        {
          "internalType": "string",
          "name": "exhibit_name",
          "type": "string"
        },
        {
          "internalType": "string",
          "name": "desc",
          "type": "string"
        },
        {
          "internalType": "string",
          "name": "timestamp",
          "type": "string"
        },
        {
          "internalType": "string",
          "name": "ipfsHash",
          "type": "string"
        }
      ],
      "payable": false,
      "stateMutability": "view",
      "type": "function"
    },
    {
      "constant": false,
      "inputs": [
        {
          "internalType": "string",
          "name": "_crime_id",
          "type": "string"
        },
        {
          "internalType": "string",
          "name": "_exhibit_name",
          "type": "string"
        },
        {
          "internalType": "string",
          "name": "_desc",
          "type": "string"
        },
        {
          "internalType": "string",
          "name": "_timestamp",
          "type": "string"
        },
        {
          "internalType": "string",
          "name": "_ipfsHash",
          "type": "string"
        }
      ],
      "name": "addReport",
      "outputs": [
        {
          "internalType": "uint256",
          "name": "",
          "type": "uint256"
        }
      ],
      "payable": false,
      "stateMutability": "nonpayable",
      "type": "function"
    },
    {
      "constant": true,
      "inputs": [],
      "name": "getPatCount",
      "outputs": [
        {
          "internalType": "uint256",
          "name": "",
          "type": "uint256"
        }
      ],
      "payable": false,
      "stateMutability": "view",
      "type": "function"
    },
    {
      "constant": true,
      "inputs": [
        {
          "internalType": "uint256",
          "name": "index",
          "type": "uint256"
        }
      ],
      "name": "getPat",
      "outputs": [
        {
          "internalType": "string",
          "name": "",
          "type": "string"
        },
        {
          "internalType": "string",
          "name": "",
          "type": "string"
        },
        {
          "internalType": "string",
          "name": "",
          "type": "string"
        },
        {
          "internalType": "string",
          "name": "",
          "type": "string"
        },
        {
          "internalType": "string",
          "name": "",
          "type": "string"
        }
      ],
      "payable": false,
      "stateMutability": "view",
      "type": "function"
    }
  ],
  "bytecode": "0x608060405234801561001057600080fd5b5061125d806100206000396000f3fe608060405234801561001057600080fd5b506004361061004c5760003560e01c80632511e3c01461005157806369081bee1461006f578063e4f606091461039a578063e9a51a77146105f1575b600080fd5b610059610848565b6040518082815260200191505060405180910390f35b610384600480360360a081101561008557600080fd5b81019080803590602001906401000000008111156100a257600080fd5b8201836020820111156100b457600080fd5b803590602001918460018302840111640100000000831117156100d657600080fd5b91908080601f016020809104026020016040519081016040528093929190818152602001838380828437600081840152601f19601f8201169050808301925050505050505091929192908035906020019064010000000081111561013957600080fd5b82018360208201111561014b57600080fd5b8035906020019184600183028401116401000000008311171561016d57600080fd5b91908080601f016020809104026020016040519081016040528093929190818152602001838380828437600081840152601f19601f820116905080830192505050505050509192919290803590602001906401000000008111156101d057600080fd5b8201836020820111156101e257600080fd5b8035906020019184600183028401116401000000008311171561020457600080fd5b91908080601f016020809104026020016040519081016040528093929190818152602001838380828437600081840152601f19601f8201169050808301925050505050505091929192908035906020019064010000000081111561026757600080fd5b82018360208201111561027957600080fd5b8035906020019184600183028401116401000000008311171561029b57600080fd5b91908080601f016020809104026020016040519081016040528093929190818152602001838380828437600081840152601f19601f820116905080830192505050505050509192919290803590602001906401000000008111156102fe57600080fd5b82018360208201111561031057600080fd5b8035906020019184600183028401116401000000008311171561033257600080fd5b91908080601f016020809104026020016040519081016040528093929190818152602001838380828437600081840152601f19601f820116905080830192505050505050509192919290505050610854565b6040518082815260200191505060405180910390f35b6103c6600480360360208110156103b057600080fd5b81019080803590602001909291905050506109a2565b60405180806020018060200180602001806020018060200186810386528b818151815260200191508051906020019080838360005b838110156104165780820151818401526020810190506103fb565b50505050905090810190601f1680156104435780820380516001836020036101000a031916815260200191505b5086810385528a818151815260200191508051906020019080838360005b8381101561047c578082015181840152602081019050610461565b50505050905090810190601f1680156104a95780820380516001836020036101000a031916815260200191505b50868103845289818151815260200191508051906020019080838360005b838110156104e25780820151818401526020810190506104c7565b50505050905090810190601f16801561050f5780820380516001836020036101000a031916815260200191505b50868103835288818151815260200191508051906020019080838360005b8381101561054857808201518184015260208101905061052d565b50505050905090810190601f1680156105755780820380516001836020036101000a031916815260200191505b50868103825287818151815260200191508051906020019080838360005b838110156105ae578082015181840152602081019050610593565b50505050905090810190601f1680156105db5780820380516001836020036101000a031916815260200191505b509a505050505050505050505060405180910390f35b61061d6004803603602081101561060757600080fd5b8101908080359060200190929190505050610d5f565b60405180806020018060200180602001806020018060200186810386528b818151815260200191508051906020019080838360005b8381101561066d578082015181840152602081019050610652565b50505050905090810190601f16801561069a5780820380516001836020036101000a031916815260200191505b5086810385528a818151815260200191508051906020019080838360005b838110156106d35780820151818401526020810190506106b8565b50505050905090810190601f1680156107005780820380516001836020036101000a031916815260200191505b50868103845289818151815260200191508051906020019080838360005b8381101561073957808201518184015260208101905061071e565b50505050905090810190601f1680156107665780820380516001836020036101000a031916815260200191505b50868103835288818151815260200191508051906020019080838360005b8381101561079f578082015181840152602081019050610784565b50505050905090810190601f1680156107cc5780820380516001836020036101000a031916815260200191505b50868103825287818151815260200191508051906020019080838360005b838110156108055780820151818401526020810190506107ea565b50505050905090810190601f1680156108325780820380516001836020036101000a031916815260200191505b509a505050505050505050505060405180910390f35b60008080549050905090565b6000808054809190600101610869919061109a565b508560006001600080549050038154811061088057fe5b906000526020600020906005020160000190805190602001906108a49291906110cc565b50846000600160008054905003815481106108bb57fe5b906000526020600020906005020160010190805190602001906108df9291906110cc565b50836000600160008054905003815481106108f657fe5b9060005260206000209060050201600201908051906020019061091a9291906110cc565b508260006001600080549050038154811061093157fe5b906000526020600020906005020160030190805190602001906109559291906110cc565b508160006001600080549050038154811061096c57fe5b906000526020600020906005020160040190805190602001906109909291906110cc565b50600080549050905095945050505050565b6060806060806060600086815481106109b757fe5b9060005260206000209060050201600001600087815481106109d557fe5b9060005260206000209060050201600101600088815481106109f357fe5b906000526020600020906005020160020160008981548110610a1157fe5b906000526020600020906005020160030160008a81548110610a2f57fe5b9060005260206000209060050201600401848054600181600116156101000203166002900480601f016020809104026020016040519081016040528092919081815260200182805460018160011615610100020316600290048015610ad55780601f10610aaa57610100808354040283529160200191610ad5565b820191906000526020600020905b815481529060010190602001808311610ab857829003601f168201915b50505050509450838054600181600116156101000203166002900480601f016020809104026020016040519081016040528092919081815260200182805460018160011615610100020316600290048015610b715780601f10610b4657610100808354040283529160200191610b71565b820191906000526020600020905b815481529060010190602001808311610b5457829003601f168201915b50505050509350828054600181600116156101000203166002900480601f016020809104026020016040519081016040528092919081815260200182805460018160011615610100020316600290048015610c0d5780601f10610be257610100808354040283529160200191610c0d565b820191906000526020600020905b815481529060010190602001808311610bf057829003601f168201915b50505050509250818054600181600116156101000203166002900480601f016020809104026020016040519081016040528092919081815260200182805460018160011615610100020316600290048015610ca95780601f10610c7e57610100808354040283529160200191610ca9565b820191906000526020600020905b815481529060010190602001808311610c8c57829003601f168201915b50505050509150808054600181600116156101000203166002900480601f016020809104026020016040519081016040528092919081815260200182805460018160011615610100020316600290048015610d455780601f10610d1a57610100808354040283529160200191610d45565b820191906000526020600020905b815481529060010190602001808311610d2857829003601f168201915b505050505090509450945094509450945091939590929450565b60008181548110610d6c57fe5b9060005260206000209060050201600091509050806000018054600181600116156101000203166002900480601f016020809104026020016040519081016040528092919081815260200182805460018160011615610100020316600290048015610e185780601f10610ded57610100808354040283529160200191610e18565b820191906000526020600020905b815481529060010190602001808311610dfb57829003601f168201915b505050505090806001018054600181600116156101000203166002900480601f016020809104026020016040519081016040528092919081815260200182805460018160011615610100020316600290048015610eb65780601f10610e8b57610100808354040283529160200191610eb6565b820191906000526020600020905b815481529060010190602001808311610e9957829003601f168201915b505050505090806002018054600181600116156101000203166002900480601f016020809104026020016040519081016040528092919081815260200182805460018160011615610100020316600290048015610f545780601f10610f2957610100808354040283529160200191610f54565b820191906000526020600020905b815481529060010190602001808311610f3757829003601f168201915b505050505090806003018054600181600116156101000203166002900480601f016020809104026020016040519081016040528092919081815260200182805460018160011615610100020316600290048015610ff25780601f10610fc757610100808354040283529160200191610ff2565b820191906000526020600020905b815481529060010190602001808311610fd557829003601f168201915b505050505090806004018054600181600116156101000203166002900480601f0160208091040260200160405190810160405280929190818152602001828054600181600116156101000203166002900480156110905780601f1061106557610100808354040283529160200191611090565b820191906000526020600020905b81548152906001019060200180831161107357829003601f168201915b5050505050905085565b8154818355818111156110c7576005028160050283600052602060002091820191016110c6919061114c565b5b505050565b828054600181600116156101000203166002900490600052602060002090601f016020900481019282601f1061110d57805160ff191683800117855561113b565b8280016001018555821561113b579182015b8281111561113a57825182559160200191906001019061111f565b5b50905061114891906111bb565b5090565b6111b891905b808211156111b4576000808201600061116b91906111e0565b60018201600061117b91906111e0565b60028201600061118b91906111e0565b60038201600061119b91906111e0565b6004820160006111ab91906111e0565b50600501611152565b5090565b90565b6111dd91905b808211156111d95760008160009055506001016111c1565b5090565b90565b50805460018160011615610100020316600290046000825580601f106112065750611225565b601f01602090049060005260206000209081019061122491906111bb565b5b5056fea265627a7a72315820a03c20e323d3e04a2a58c1ede27edcd8666b9e420b483d35cf564aaefed1d43564736f6c63430005100032",
  "source": "pragma solidity ^0.5.0;\r\n\r\ncontract ForensicContract {  \r\n  struct CrimeDetails {\r\n        string crime_id;\r\n        string exhibit_name;\r\n        string desc;\r\n        string timestamp;\r\n        string ipfsHash;\r\n    }\r\n    \r\n    CrimeDetails[] public crime;    \r\n    function addReport(string memory _crime_id, string memory _exhibit_name, string memory _desc, string memory _timestamp, string memory _ipfsHash) public returns(uint) {\r\n        crime.length++;\r\n        crime[crime.length-1].crime_id = _crime_id;\r\n        crime[crime.length-1].exhibit_name = _exhibit_name;\r\n        crime[crime.length-1].desc = _desc;\r\n        crime[crime.length-1].timestamp = _timestamp;\r\n        crime[crime.length-1].ipfsHash = _ipfsHash;\r\n        return crime.length;        \r\n    }\r\n    \r\n    function getPatCount() public view returns(uint) {\r\n        return crime.length;\r\n    }\r\n    \r\n    function getPat(uint index) public view returns (string memory, string memory, string memory,string memory, string memory)\r\n    {\r\n        return (crime[index].crime_id, crime[index].exhibit_name, crime[index].desc, crime[index].timestamp, crime[index].ipfsHash);\r\n    }\r\n    \r\n    // function getPat2(uint index) public view returns(string memory, uint, string memory, string memory)\r\n    // {\r\n    //     return (crime[index].par_rem, crime[index].fee, crime[index].message, crime[index].ipfsHash);\r\n    // }\r\n}\r\n",
  "sourcePath": "C:\\6th sem\\bc\\Crime-Records-Blockchain\\contracts\\ForensicContract.sol",
  "compiler": {
    "name": "solc",
    "version": "0.5.16+commit.9c3226ce.Emscripten.clang"
  },
  "schemaVersion": "3.4.16",
  "updatedAt": "2024-06-14T07:00:02.245Z",
  "networkType": "ethereum",
  "devdoc": {
    "methods": {}
  },
  "userdoc": {
    "methods": {}
  }
}