{
  "contractName": "SimpleStorage",
  "abi": [
    {
      "constant": true,
      "inputs": [
        {
          "internalType": "uint256",
          "name": "",
          "type": "uint256"
        }
      ],
      "name": "crime",
      "outputs": [
        {
          "internalType": "string",
          "name": "crime_id",
          "type": "string"
        },
        {
          "internalType": "string",
          "name": "timestamp",
          "type": "string"
        },
        {
          "internalType": "string",
          "name": "offense_code",
          "type": "string"
        },
        {
          "internalType": "string",
          "name": "description",
          "type": "string"
        }
      ],
      "payable": false,
      "stateMutability": "view",
      "type": "function"
    },
    {
      "constant": false,
      "inputs": [
        {
          "internalType": "string",
          "name": "_crime_id",
          "type": "string"
        },
        {
          "internalType": "string",
          "name": "_timestamp",
          "type": "string"
        },
        {
          "internalType": "string",
          "name": "_offense_code",
          "type": "string"
        },
        {
          "internalType": "string",
          "name": "_description",
          "type": "string"
        }
      ],
      "name": "addCrimeReport",
      "outputs": [
        {
          "internalType": "uint256",
          "name": "",
          "type": "uint256"
        }
      ],
      "payable": false,
      "stateMutability": "nonpayable",
      "type": "function"
    },
    {
      "constant": true,
      "inputs": [],
      "name": "getCrimeCount",
      "outputs": [
        {
          "internalType": "uint256",
          "name": "",
          "type": "uint256"
        }
      ],
      "payable": false,
      "stateMutability": "view",
      "type": "function"
    },
    {
      "constant": true,
      "inputs": [
        {
          "internalType": "uint256",
          "name": "index",
          "type": "uint256"
        }
      ],
      "name": "getCrimeBlock",
      "outputs": [
        {
          "internalType": "string",
          "name": "",
          "type": "string"
        },
        {
          "internalType": "string",
          "name": "",
          "type": "string"
        },
        {
          "internalType": "string",
          "name": "",
          "type": "string"
        },
        {
          "internalType": "string",
          "name": "",
          "type": "string"
        }
      ],
      "payable": false,
      "stateMutability": "view",
      "type": "function"
    },
    {
      "constant": true,
      "inputs": [],
      "name": "getAllCrimeDetails",
      "outputs": [
        {
          "components": [
            {
              "internalType": "string",
              "name": "crime_id",
              "type": "string"
            },
            {
              "internalType": "string",
              "name": "timestamp",
              "type": "string"
            },
            {
              "internalType": "string",
              "name": "offense_code",
              "type": "string"
            },
            {
              "internalType": "string",
              "name": "description",
              "type": "string"
            }
          ],
          "internalType": "struct SimpleStorage.CrimeDetails[]",
          "name": "",
          "type": "tuple[]"
        }
      ],
      "payable": false,
      "stateMutability": "view",
      "type": "function"
    }
  ],
  "bytecode": "0x608060405234801561001057600080fd5b50611253806100206000396000f3fe608060405234801561001057600080fd5b50600436106100575760003560e01c80633cb4c1cb1461005c578063644f30de1461008f578063b2fffc23146100ad578063e9a51a77146100dd578063fdb917ed14610110575b600080fd5b61007660048036036100719190810190610def565b61012e565b6040516100869493929190610ff5565b60405180910390f35b61009761042b565b6040516100a49190610fd3565b60405180910390f35b6100c760048036036100c29190810190610d2c565b610762565b6040516100d491906110b7565b60405180910390f35b6100f760048036036100f29190810190610def565b610874565b6040516101079493929190611056565b60405180910390f35b610118610b11565b60405161012591906110b7565b60405180910390f35b6060806060806000858154811061014157fe5b90600052602060002090600402016000016000868154811061015f57fe5b90600052602060002090600402016001016000878154811061017d57fe5b90600052602060002090600402016002016000888154811061019b57fe5b9060005260206000209060040201600301838054600181600116156101000203166002900480601f0160208091040260200160405190810160405280929190818152602001828054600181600116156101000203166002900480156102415780601f1061021657610100808354040283529160200191610241565b820191906000526020600020905b81548152906001019060200180831161022457829003601f168201915b50505050509350828054600181600116156101000203166002900480601f0160208091040260200160405190810160405280929190818152602001828054600181600116156101000203166002900480156102dd5780601f106102b2576101008083540402835291602001916102dd565b820191906000526020600020905b8154815290600101906020018083116102c057829003601f168201915b50505050509250818054600181600116156101000203166002900480601f0160208091040260200160405190810160405280929190818152602001828054600181600116156101000203166002900480156103795780601f1061034e57610100808354040283529160200191610379565b820191906000526020600020905b81548152906001019060200180831161035c57829003601f168201915b50505050509150808054600181600116156101000203166002900480601f0160208091040260200160405190810160405280929190818152602001828054600181600116156101000203166002900480156104155780601f106103ea57610100808354040283529160200191610415565b820191906000526020600020905b8154815290600101906020018083116103f857829003601f168201915b5050505050905093509350935093509193509193565b60608060008054905060405190808252806020026020018201604052801561046d57816020015b61045a610b1d565b8152602001906001900390816104525790505b50905060008090505b60008054905081101561075a57600080828154811061049157fe5b9060005260206000209060040201905080604051806080016040529081600082018054600181600116156101000203166002900480601f0160208091040260200160405190810160405280929190818152602001828054600181600116156101000203166002900480156105465780601f1061051b57610100808354040283529160200191610546565b820191906000526020600020905b81548152906001019060200180831161052957829003601f168201915b50505050508152602001600182018054600181600116156101000203166002900480601f0160208091040260200160405190810160405280929190818152602001828054600181600116156101000203166002900480156105e85780601f106105bd576101008083540402835291602001916105e8565b820191906000526020600020905b8154815290600101906020018083116105cb57829003601f168201915b50505050508152602001600282018054600181600116156101000203166002900480601f01602080910402602001604051908101604052809291908181526020018280546001816001161561010002031660029004801561068a5780601f1061065f5761010080835404028352916020019161068a565b820191906000526020600020905b81548152906001019060200180831161066d57829003601f168201915b50505050508152602001600382018054600181600116156101000203166002900480601f01602080910402602001604051908101604052809291908181526020018280546001816001161561010002031660029004801561072c5780601f106107015761010080835404028352916020019161072c565b820191906000526020600020905b81548152906001019060200180831161070f57829003601f168201915b50505050508152505083838151811061074157fe5b6020026020010181905250508080600101915050610476565b508091505090565b60008080548091906001016107779190610b45565b508460006001600080549050038154811061078e57fe5b906000526020600020906004020160000190805190602001906107b2929190610b77565b50836000600160008054905003815481106107c957fe5b906000526020600020906004020160010190805190602001906107ed929190610b77565b508260006001600080549050038154811061080457fe5b90600052602060002090600402016002019080519060200190610828929190610b77565b508160006001600080549050038154811061083f57fe5b90600052602060002090600402016003019080519060200190610863929190610b77565b506000805490509050949350505050565b6000818154811061088157fe5b9060005260206000209060040201600091509050806000018054600181600116156101000203166002900480601f01602080910402602001604051908101604052809291908181526020018280546001816001161561010002031660029004801561092d5780601f106109025761010080835404028352916020019161092d565b820191906000526020600020905b81548152906001019060200180831161091057829003601f168201915b505050505090806001018054600181600116156101000203166002900480601f0160208091040260200160405190810160405280929190818152602001828054600181600116156101000203166002900480156109cb5780601f106109a0576101008083540402835291602001916109cb565b820191906000526020600020905b8154815290600101906020018083116109ae57829003601f168201915b505050505090806002018054600181600116156101000203166002900480601f016020809104026020016040519081016040528092919081815260200182805460018160011615610100020316600290048015610a695780601f10610a3e57610100808354040283529160200191610a69565b820191906000526020600020905b815481529060010190602001808311610a4c57829003601f168201915b505050505090806003018054600181600116156101000203166002900480601f016020809104026020016040519081016040528092919081815260200182805460018160011615610100020316600290048015610b075780601f10610adc57610100808354040283529160200191610b07565b820191906000526020600020905b815481529060010190602001808311610aea57829003601f168201915b5050505050905084565b60008080549050905090565b6040518060800160405280606081526020016060815260200160608152602001606081525090565b815481835581811115610b7257600402816004028360005260206000209182019101610b719190610bf7565b5b505050565b828054600181600116156101000203166002900490600052602060002090601f016020900481019282601f10610bb857805160ff1916838001178555610be6565b82800160010185558215610be6579182015b82811115610be5578251825591602001919060010190610bca565b5b509050610bf39190610c56565b5090565b610c5391905b80821115610c4f5760008082016000610c169190610c7b565b600182016000610c269190610c7b565b600282016000610c369190610c7b565b600382016000610c469190610c7b565b50600401610bfd565b5090565b90565b610c7891905b80821115610c74576000816000905550600101610c5c565b5090565b90565b50805460018160011615610100020316600290046000825580601f10610ca15750610cc0565b601f016020900490600052602060002090810190610cbf9190610c56565b5b50565b600082601f830112610cd457600080fd5b8135610ce7610ce2826110ff565b6110d2565b91508082526020830160208301858383011115610d0357600080fd5b610d0e8382846111a6565b50505092915050565b600081359050610d26816111f9565b92915050565b60008060008060808587031215610d4257600080fd5b600085013567ffffffffffffffff811115610d5c57600080fd5b610d6887828801610cc3565b945050602085013567ffffffffffffffff811115610d8557600080fd5b610d9187828801610cc3565b935050604085013567ffffffffffffffff811115610dae57600080fd5b610dba87828801610cc3565b925050606085013567ffffffffffffffff811115610dd757600080fd5b610de387828801610cc3565b91505092959194509250565b600060208284031215610e0157600080fd5b6000610e0f84828501610d17565b91505092915050565b6000610e248383610f4c565b905092915050565b6000610e378261113b565b610e418185611169565b935083602082028501610e538561112b565b8060005b85811015610e8f5784840389528151610e708582610e18565b9450610e7b8361115c565b925060208a01995050600181019050610e57565b50829750879550505050505092915050565b6000610eac82611151565b610eb6818561118b565b9350610ec68185602086016111b5565b610ecf816111e8565b840191505092915050565b6000610ee582611146565b610eef818561117a565b9350610eff8185602086016111b5565b610f08816111e8565b840191505092915050565b6000610f1e82611146565b610f28818561118b565b9350610f388185602086016111b5565b610f41816111e8565b840191505092915050565b60006080830160008301518482036000860152610f698282610eda565b91505060208301518482036020860152610f838282610eda565b91505060408301518482036040860152610f9d8282610eda565b91505060608301518482036060860152610fb78282610eda565b9150508091505092915050565b610fcd8161119c565b82525050565b60006020820190508181036000830152610fed8184610e2c565b905092915050565b6000608082019050818103600083015261100f8187610ea1565b905081810360208301526110238186610ea1565b905081810360408301526110378185610ea1565b9050818103606083015261104b8184610ea1565b905095945050505050565b600060808201905081810360008301526110708187610f13565b905081810360208301526110848186610f13565b905081810360408301526110988185610f13565b905081810360608301526110ac8184610f13565b905095945050505050565b60006020820190506110cc6000830184610fc4565b92915050565b6000604051905081810181811067ffffffffffffffff821117156110f557600080fd5b8060405250919050565b600067ffffffffffffffff82111561111657600080fd5b601f19601f8301169050602081019050919050565b6000819050602082019050919050565b600081519050919050565b600081519050919050565b600081519050919050565b6000602082019050919050565b600082825260208201905092915050565b600082825260208201905092915050565b600082825260208201905092915050565b6000819050919050565b82818337600083830152505050565b60005b838110156111d35780820151818401526020810190506111b8565b838111156111e2576000848401525b50505050565b6000601f19601f8301169050919050565b6112028161119c565b811461120d57600080fd5b5056fea365627a7a7231582055e8473abcee746dc345acfa5463e18614a1698f81e1709f4ba88b141589d8736c6578706572696d656e74616cf564736f6c63430005100040",
  "source": "pragma solidity ^0.5.0;\r\npragma experimental ABIEncoderV2;\r\n\r\ncontract SimpleStorage {  \r\n  struct CrimeDetails {\r\n        string crime_id;\r\n        string timestamp;\r\n        string offense_code;\r\n        string description;        \r\n    }\r\n    \r\n    CrimeDetails[] public crime;    \r\n\r\n    function addCrimeReport(string memory _crime_id, string memory _timestamp, string memory _offense_code, string memory _description) public returns(uint) {\r\n        crime.length++;\r\n        crime[crime.length-1].crime_id = _crime_id;\r\n        crime[crime.length-1].timestamp = _timestamp;\r\n        crime[crime.length-1].offense_code = _offense_code;\r\n        crime[crime.length-1].description = _description;\r\n        return crime.length;        \r\n    }\r\n    \r\n    function getCrimeCount() public view returns(uint) {\r\n        return crime.length;\r\n    }\r\n    \r\n    function getCrimeBlock(uint index) public view returns (string memory, string memory, string memory, string memory)\r\n    {\r\n        return (crime[index].crime_id, crime[index].timestamp, crime[index].offense_code, crime[index].description);\r\n    }\r\n    function getAllCrimeDetails() public view returns (CrimeDetails[] memory)\r\n    {\r\n        CrimeDetails[] memory id = new CrimeDetails[](crime.length);\r\n        for (uint i = 0; i < crime.length; i++) {\r\n            CrimeDetails storage tempCrime = crime[i];\r\n            id[i] = tempCrime;\r\n        }\r\n        return id;\r\n    }\r\n}\r\n",
  "sourcePath": "C:\\6th sem\\bc\\Crime-Records-Blockchain\\contracts\\SimpleStorage.sol",
  "compiler": {
    "name": "solc",
    "version": "0.5.16+commit.9c3226ce.Emscripten.clang"
  },
  "schemaVersion": "3.4.16",
  "updatedAt": "2024-06-14T07:00:02.241Z",
  "networkType": "ethereum",
  "devdoc": {
    "methods": {}
  },
  "userdoc": {
    "methods": {}
  }
}